:100000000C9472000C948B000C948B000C948B005D
:100010000C948B000C948B000C948B000C948B0034
:100020000C948B000C948B000C948B000C948B0024
:100030000C948B000C948B000C948B000C948B0014
:100040000C948B000C948B000C948B000C948B0004
:100050000C948B000C948D000C948B000C948B00F2
:100060000C948B000C948B000C948B000C948B00E4
:100070000C948B000C948B000C948B000C948B00D4
:100080000C948B000C948B000C948B000C948B00C4
:100090000C948B000C948B000C948B000C948B00B4
:1000A0000C948B000C948B000C948B000C948B00A4
:1000B0000C948B000C948B000C948B000C948B0094
:1000C0000C948B000C948B000C948B000C948B0084
:1000D0000C948B000C948B000C948B000C948B0074
:1000E0000C948B0011241FBECFEFD1E2DEBFCDBF39
:1000F00000E00CBF12E0A0E0B2E0EEEEF2E000E0C3
:100100000BBF02C007900D92A830B107D9F70E942B
:10011000D1000C9475010C9400001F920F920FB641
:100120000F9211248F939F938091C00090917A0039
:1001300080729071892BC1F3809178008093C60002
:100140008091C00085FFFCCF809179008093C6002C
:1001500080917A00806180937A009F918F910F90B7
:100160000FBE0F901F9018959091C00095FFFCCF87
:100170008093C60008958091C00087FFFCCF8091D6
:10018000C6000895FC012081222351F03196909100
:10019000C00095FFFCCF2093C60021912111F7CF1D
:1001A0000895CF92DF92EF92FF92F894279A2F98BA
:1001B0001092C50080E18093C40086E08093C20065
:1001C00088E18093C10080917A00806880937A00F2
:1001D00080917C00806680937C0080917A008062B0
:1001E00080937A0080917B00836080937B00789479
:1001F00080917A00806480937A00E1E0F2E093E5F8
:100200008091C00085FFFCCF9093C6009191911121
:10021000F7CF8091C00086FFFCCF8091C000806442
:100220008093C00080917A00806180937A008091F1
:10023000C00087FFFCCF8091C6008091C000806A1B
:100240008093C00084B5826084BD88E187BD8091C1
:100250006E00826080936E008091C00085FFFCCFAD
:100260008BE48093C6008091C00086FFFCCF30E015
:1002700020E0C12CD12C7601CA94B701A6014878A0
:10028000537166277727022E04C076956795579598
:1002900047950A94D2F78091C00085FFFCCF409328
:1002A000C600FE2CED2CDC2CCC24285F3F4F2032E6
:1002B000310519F78091C00080668093C00080915D
:1002C000C00087FFFCCF8091C60085B5836085BDE7
:1002D0008091C00087FFFCCF8091C60090E080E055
:0E02E000FF90EF90DF90CF900895F894FFCF3D
:0802EE0053746172740A0000F0
:00000001FF
