:100000000C9472000C9493000C9493000C94930045
:100010000C9493000C9493000C9493000C94930014
:100020000C9493000C9493000C9493000C94930004
:100030000C9493000C9493000C9493000C949300F4
:100040000C9493000C9493000C9493000C949300E4
:100050000C9493000C9495000C9493000C949300D2
:100060000C9493000C9493000C9493000C949300C4
:100070000C9493000C9493000C9493000C949300B4
:100080000C9493000C9493000C9493000C949300A4
:100090000C9493000C9493000C9493000C94930094
:1000A0000C9493000C9493000C9493000C94930084
:1000B0000C9493000C9493000C9493000C94930074
:1000C0000C9493000C9493000C9493000C94930064
:1000D0000C9493000C9493000C9493000C94930054
:1000E0000C94930011241FBECFEFD1E2DEBFCDBF31
:1000F00000E00CBF12E0A0E0B2E0E6E4F6E000E0D1
:100100000BBF02C007900D92A830B107D9F722E0CB
:10011000A8E0B2E001C01D92A431B207E1F70E944D
:100120002A010C9421030C9400001F920F920FB629
:100130000F9211240BB60F92CF92DF92EF92FF92A3
:100140002F933F934F935F936F937F938F939F93DF
:10015000AF93BF93EF93FF936091100270911102E0
:10016000809112029091130220E030E04FE753E4B7
:100170000E948B02181644F4109210021092110281
:1001800010921202109213028091C00085FFFCCFE2
:1001900060911002709111028091120290911302ED
:1001A0000E940B026093C600C0901002D090110212
:1001B000E0901202F090130220E030E040EF52E4B1
:1001C000609108027091090280910A0290910B02DD
:1001D0000E949002A70196010E949F016093100265
:1001E000709311028093120290931302FF91EF918A
:1001F000BF91AF919F918F917F916F915F914F913F
:100200003F912F91FF90EF90DF90CF900F900BBE1A
:100210000F900FBE0F901F9018959091C00095FF02
:10022000FCCF8093C60008958091C00087FFFCCF6B
:100230008091C6000895FC012081222351F031965F
:100240009091C00095FFFCCF2093C6002191211111
:10025000F7CF0895F894279A2F981092C50087E653
:100260008093C40086E08093C20088E18093C1003F
:100270007894E2E0F2E093E58091C00085FFFCCF46
:100280009093C60091919111F7CF8091C00086FFA5
:10029000FCCF8091C00080648093C0008091C0003A
:1002A00087FFFCCF8091C6008091C000806A809358
:1002B000C00084B5826084BD8BE987BD80916E00EB
:1002C000826080936E008DE092E5A8E4B3E48093B1
:1002D0000C0290930D02A0930E02B0930F028EEECB
:1002E00093E9A3EABBE38093080290930902A093E9
:1002F0000A02B0930B028091C00085FFFCCF8BE413
:100300008093C6008091C00086FFFCCF8091C00022
:1003100080668093C0008091C00087FFFCCF8091F1
:10032000C60085B5846085BD2F9A8091C00087FF87
:10033000FCCF8091C60090E080E008955058BB2724
:10034000AA270E94B6010C9451020E94430238F081
:100350000E944A0220F039F49F3F19F426F40C94CD
:1003600040020EF4E095E7FB0C943A02E92F0E945C
:10037000620258F3BA17620773078407950720F0E3
:1003800079F4A6F50C9484020EF4E0950B2EBA2FA6
:10039000A02D0B01B90190010C01CA01A00111248B
:1003A000FF27591B99F0593F50F4503E68F11A1637
:1003B000F040A22F232F342F4427585FF3CF4695C8
:1003C00037952795A795F0405395C9F77EF41F16EA
:1003D000BA0B620B730B840BBAF09150A1F0FF0FB4
:1003E000BB1F661F771F881FC2F70EC0BA0F621FA0
:1003F000731F841F48F4879577956795B795F79590
:100400009E3F08F0B0CF9395880F08F09927EE0F24
:100410009795879508950E946A0288F09F5798F0F3
:10042000B92F9927B751B0F0E1F0660F771F881FF9
:10043000991F1AF0BA95C9F714C0B13091F00E9413
:100440008402B1E008950C948402672F782F8827E6
:10045000B85F39F0B93FCCF3869577956795B3953A
:10046000D9F73EF490958095709561957F4F8F4FA9
:100470009F4F089597F99F6780E870E060E00895C6
:100480009FEF80EC089500240A94161617061806AC
:100490000906089500240A94121613061406050688
:1004A0000895092E0394000C11F4882352F0BB0F19
:1004B00040F4BF2B11F460FF04C06F5F7F4F8F4F7C
:1004C0009F4F089557FD9058440F551F59F05F3FB7
:1004D00071F04795880F97FB991F61F09F3F79F066
:1004E00087950895121613061406551FF2CF4695E8
:1004F000F1DF08C0161617061806991FF1CF86956A
:100500007105610508940895E894BB27662777274D
:10051000CB0197F908950E94FD0208F48FEF08952A
:100520000E94A3020C9451020E94430238F00E94E0
:100530004A0220F0952311F00C943A020C944002E8
:1005400011240C9485020E94620270F3959FC1F3FE
:10055000950F50E0551F629FF001729FBB27F00D71
:10056000B11D639FAA27F00DB11DAA1F649F6627C6
:10057000B00DA11D661F829F2227B00DA11D621F15
:10058000739FB00DA11D621F839FA00D611D221FCF
:10059000749F3327A00D611D231F849F600D211DB3
:1005A000822F762F6A2F11249F5750409AF0F1F036
:1005B00088234AF0EE0FFF1FBB1F661F771F881F9F
:1005C00091505040A9F79E3F510580F00C943A029B
:1005D0000C9485025F3FE4F3983ED4F386957795BB
:1005E0006795B795F795E7959F5FC1F7FE2B880F45
:1005F000911D9695879597F90895990F0008550FC5
:10060000AA0BE0E8FEEF16161706E807F907C0F098
:1006100012161306E407F50798F0621B730B840BA0
:10062000950B39F40A2661F0232B242B252B21F47A
:1006300008950A2609F4A140A6958FEF811D811D1A
:060640000895F894FFCFBD
:080646000153746172740A0093
:00000001FF
