:100000000C9472000C9493000C9493000C94930045
:100010000C9493000C9493000C9493000C94930014
:100020000C9493000C9493000C9493000C94930004
:100030000C9493000C9493000C9493000C949300F4
:100040000C9493000C9493000C9493000C949300E4
:100050000C9493000C9495000C9493000C949300D2
:100060000C9493000C9493000C9493000C949300C4
:100070000C9493000C9493000C9493000C949300B4
:100080000C9493000C9493000C9493000C949300A4
:100090000C9493000C9493000C9493000C94930094
:1000A0000C9493000C9493000C9493000C94930084
:1000B0000C9493000C9493000C9493000C94930074
:1000C0000C9493000C9493000C9493000C94930064
:1000D0000C9493000C9493000C9493000C94930054
:1000E0000C94930011241FBECFEFD1E2DEBFCDBF31
:1000F00000E00CBF12E0A0E0B2E0E2E4F2E000E0D9
:100100000BBF02C007900D92A830B107D9F722E0CB
:10011000A8E0B2E001C01D92A930B207E1F70E9449
:10012000CB000C941F010C9400001F920F920FB68D
:100130000F9211248F938091C00085FFFCCF809196
:1001400008028093C600809108028F5F80930802A6
:100150008F910F900FBE0F901F9018959091C00037
:1001600095FFFCCF8093C60008958091C00087FF63
:10017000FCCF8091C6000895FC012081222351F01C
:1001800031969091C00095FFFCCF2093C60021913D
:100190002111F7CF0895F894279A2F981092C5004F
:1001A00087E68093C40086E08093C20088E1809354
:1001B000C1007894E2E0F2E093E58091C00085FF11
:1001C000FCCF9093C60091919111F7CF8091C00020
:1001D00086FFFCCF8091C00080648093C000809136
:1001E000C00087FFFCCF8091C6008091C000806A6C
:1001F0008093C00084B5826084BD8BE987BD809107
:100200006E00826080936E008091C00085FFFCCFFD
:100210008BE48093C6008091C00086FFFCCF809164
:10022000C00080668093C0008091C00087FFFCCF33
:100230008091C60085B5846085BD2F9AFFCFF89464
:02024000FFCFEE
:080242000153746172740A009B
:00000001FF
